:1000000080EF31F00000000000EF00F00000000081
:0A0010000000000000000000F3D71C
:0462FC00000012008C
:1063000092EC3DF05FEC3CF0000E0001A16F050E39
:10631000A26F400EA36F050EA46F67EC3CF0F7EC84
:106320003CF0005206E17DEC3CF02FEC3CF0E6DF67
:0863300002D07FEC3CF0FFD726
:106338000B6A0A6A096A00500402F4CF09F0F3CF25
:1063480008F001500502F4CF0BF0F3CF0AF000502B
:106358000502F3500926F4500A22E86A0B2201507C
:106368000402F3500926F4500A22E86A0B2208C0F6
:1063780000F009C001F00AC002F00BC003F01200DF
:106388001E0E716E100E2A6E040E2B6E2AC0E1FFCF
:106398002BC0E2FFE69E2AC0E1FF2BC0E2FFE69C8D
:1063A800040E2A24E16E000E2B20E26EE68C180EF5
:1063B800206E040E216E20C0E1FF21C0E2FFE69EA0
:1063C80020C0E1FF21C0E2FFE69C040E2024E16E1C
:1063D800000E2120E26EE68C020E2A24E16E000EE9
:1063E8002B20E26E25C0E6FF26C0E6FF010E2A2418
:1063F800E16E000E2B20E26E400EE66E2AC0E9FF29
:106408002BC0EAFFEECF00F02AC0E1FF2BC0E2FF6D
:10641800400E0014E66E2AC0E9FF2BC0EAFFEECF5B
:1064280000F02AC0E1FF2BC0E2FF880E0010E66EE4
:106438002AC023F02BC024F0040E2A18006E00C0D6
:046448002AF0120024
:10644C000401286B296B42D0338E28812F50010A0E
:10645C00D8B4288350D0338E4ED0338E24BF16D070
:10646C0024C403F00F0E031603C000F0000E016EDF
:10647C00003600900136280E0024E96E000E012033
:10648C00EA6EEECF04F0EECF05F015D024C403F085
:10649C000F0E031603C000F0000E016E00360090C4
:1064AC0001361E0E0024E96E000E0120EA6EEECFBE
:1064BC0004F0EECF05F004C0E9FF05C0EAFFEECF13
:1064CC0001F001A402D0010E286F15D020C401F0F8
:1064DC001F0E01160150000AB7E020C401F01F0E78
:1064EC0001160150010AB7E020C401F01F0E01167D
:1064FC000150020AB2E033AE07D0280E306E040E03
:0A650C00316E3380020E346E12006F
:10651600000E355C02E1080E345C10E234C003F074
:1065260035C004F05B50000A03E1010E5B6E05D036
:106536005B50010A02E1020E5B6E04D0080E036E88
:10654600000E046E1EC0E1FF1FC0E2FFE6921EC0F1
:10655600E1FF1FC0E2FFE6901EC0E9FF1FC0EAFF91
:10656600EECF00F01EC0E1FF1FC0E2FF0450001096
:10657600E66E010E1E24E16E000E1F20E26E03C0C1
:10658600E6FF0350345C006E04503558016E00C0BF
:1065960034F001C035F0280E4C6E040E4D6E33B04B
:1065A6002FD0035004102BE030C0F6FF31C0F7FFA8
:1065B60032C0F8FF0900F5CF00F04CC0E1FF4DC036
:1065C600E2FF00C0E6FF4C4A4D2A010E3024006E61
:1065D600000E3120016E000E3220026E00C030F037
:1065E60001C031F002C032F0010E035C006E000EF5
:1065F6000458016E00C003F001C004F0D2D724D0C5
:106606000350041021E030C0E9FF31C0EAFF4CC05E
:10661600E1FF4DC0E2FFEECFE6FF4C4A4D2A010EE8
:106626003024006E000E3120016E00C030F001C033
:1066360031F0010E035C006E000E0458016E00C0BE
:0A66460003F001C004F0DCD71200DD
:1066500020C401F01F0E01160150010A01E08DD087
:1066600004012451000A01E088D02151060A3FE1CB
:1066700034D01C50010A17E1750E006E7A0E016EBF
:10668000000E026E120E0026000E0122022200C031
:1066900030F001C031F002C032F0090E346E000E4D
:1066A000356EC00E336E23D01C50010A12E1E60E87
:1066B000006E7A0E016E000E026E00C030F001C056
:1066C00031F002C032F0210E346E000E356EC00E75
:1066D000336E0DD0800E336E0AD004012351210A8F
:1066E000C8E02351220AE0E02351230AF3E020C44A
:1066F00001F0600E0116050E006E005004E001323C
:10670000019EFF0FFBD70150010A01E036D022D0D5
:1067100034D033D0220E306E000E316E010E346E46
:10672000000E356EC10E336E28D0800E336E23C43A
:1067300022F023D0270E306E000E316E010E346E23
:10674000000E356E810E336E18D0800E336E22C46B
:1067500027F013D004012151010ADAE02151090A7E
:10676000D8E02151020AD6E021510A0ADEE0215187
:0C677000030AE0E021510B0AE8E01200EF
:10677C0004012251010A0FE120C401F01F0E011681
:10678C000150000A08E1338E2151030A03E1010E86
:10679C002F6E01D02F6A2251000AD8A48BD020C4AE
:1067AC0001F01F0E01160150020AD8A483D024C494
:1067BC0001F00F0E01160150000AD8B47BD0338EB5
:1067CC0024BF16D024C403F00F0E031603C000F030
:1067DC00000E016E003600900136280E0024E96E82
:1067EC00000E0120EA6EEECF04F0EECF05F015D0CE
:1067FC0024C403F00F0E031603C000F0000E016E4C
:10680C000036009001361E0E0024E96E000E0120A9
:10681C00EA6EEECF04F0EECF05F02151030A07E14A
:10682C0004C0E1FF05C0E2FF840EE66E43D024C431
:10683C0000F00F0E0016700E026E0F0E036E00505D
:10684C000226D8B0032A02C0E9FF03C0EAFFFE0EFD
:10685C00EE14006EEECF01F0FF0E011602C0E1FF48
:10686C0003C0E2FF00C0E6FF01C0E6FF24AF11D079
:10687C0004C0E1FF05C0E2FFE66A040E0418006ED6
:10688C0000C004F004C0E1FF05C0E2FF400EE66E5C
:10689C0011D004C0E1FF05C0E2FF880EE66E040EC5
:1068AC000418006E00C004F004C0E1FF05C0E2FF54
:0668BC00C80EE66E12009A
:1068C20004012051800AD8A471D0C00E336E64D066
:1068D200070E006E7B0E016E000E026E00C030F0DD
:1068E20001C031F002C032F0120E346E000E356E6D
:1068F2005DD0030E006E000E016E22C404F0000E85
:10690200056E19DD2C0E0024E96E000E0120EA6EE0
:10691200EECF30F0EECF31F0EECF32F0020E302477
:10692200F66E000E3120F76E000E3220F86E09006E
:10693200F5CF00F00900F5CF01F000C034F001C03E
:1069420035F034D022513F5C23E3030E006E000E7B
:10695200016E22C404F0000E056EEDDC360E00243A
:10696200E96E000E0120EA6EEECF30F0EECF31F08C
:10697200EECF32F030C0F6FF31C0F7FF32C0F8FF81
:106982000900F5CF00F000C034F0000E356E01D0E2
:10699200336A0CD0336A0AD02351010A99E0235199
:0E69A200020AA7E02351030ACDE0F4D7120049
:1069B000338E716A4B6A22C41CF01C50000A03E13A
:0E69C000100E5C6E03D0200E5C6EDEDC12004A
:1069CE006D9833BE49D053AE28D0020E506E010ED4
:1069DE001E24E16E000E1F20E26EE66A1EC0E1FF6D
:1069EE001FC0E2FFC80EE66E010E4E24E16E000ED1
:1069FE004F20E26E080EE66E020E4E24E16E000E81
:106A0E004F20E26E280EE66E040EE66E4EC0E1FFDB
:106A1E004FC0E2FFC80EE66E1ED0010E4E24E16E90
:106A2E00000E4F20E26E080EE66E020E4E24E16E50
:106A3E00000E4F20E26E200EE66E040EE66E4EC085
:106A4E00E1FF4FC0E2FF8C0EE66E1EC0E1FF1FC0DD
:106A5E00E2FF840EE66E7DD053BE7BD0040120AFE4
:106A6E0051D03550275D02E13450265D04E226C434
:106A7E0034F027C435F048DD010E506E010E4E2461
:106A8E00E16E000E4F20E26E080EE66E020E4E24F0
:106A9E00E16E000E4F20E26E200EE66E040EE66EE4
:106AAE004EC0E1FF4FC0E2FF800EE66E5A6A010E45
:106ABE005D24E16E000E5E20E26E080EE66E020EA2
:106ACE005D24E16E000E5E20E26E200EE66E040E78
:106ADE00E66E5DC0E1FF5EC0E2FF840EE66E010E63
:106AEE005A6E020E1E24E16E000E1F20E26E280E5C
:106AFE00E66E040EE66E1EC0E1FF1FC0E2FFC80E7A
:106B0E00E66E27D0020E506E010E1E24E16E000EB0
:106B1E001F20E26EE66A1EC0E1FF1FC0E2FFC80E34
:106B2E00E66E010E4E24E16E000E4F20E26E080E50
:106B3E00E66E020E4E24E16E000E4F20E26E280E1F
:106B4E00E66E040EE66E4EC0E1FF4FC0E2FFC80EC9
:046B5E00E66E1200CD
:106B6200750E2C6E7A0E2D6E000E2E6E200E366E67
:106B72007B0E376E000E386EC40E396E7A0E3A6E88
:106B8200000E3B6E9E0E3C6E7A0E3D6E000E3E6E09
:026B92001200EF
:106B9400010E5D24E96E000E5E20EA6EEECF00F079
:106BA40000C002F0000E555C02E10250545C03E2A6
:106BB40054C002F00AD00250545C006E000E5558C6
:106BC400016E00C054F001C055F0036A0250035C2A
:106BD4001CE2280EE96E040EEA6E0350E926D8B0D2
:106BE400EA2AEECF00F051C0E1FF52C0E2FF00C03C
:106BF400E6FF010E5124006E000E5220016E00C00B
:106C040051F001C052F0032AE1D7000E006E555036
:106C1400005C02E15450000828E2010E4E24E16EAB
:106C2400000E4F20E26E080EE66E020E4E24E16E58
:106C3400000E4F20E26E280EE66E040EE66E5DC076
:106C4400E9FF5EC0EAFFEECF00F000BC07D04EC003
:106C5400E1FF4FC0E2FFC80EE66E06D04EC0E1FF72
:106C64004FC0E2FF880EE66E19D0010E4E24E16E8D
:106C7400000E4F20E26E080EE66E020E4E24E16E08
:106C8400000E4F20E26E200EE66E040EE66E4EC03D
:0E6C9400E1FF4FC0E2FF840EE66E539E120039
:106CA20020C401F0600E0116050E006E005004E0D3
:106CB2000132019EFF0FFBD70150000A01E059D0BB
:106CC20035D0338E080E5C6E54D0FADD52D06FDEB2
:106CD20050D01C0E306E000E316E3380010E346EB9
:106CE200338E47D026EC32F044D047DD42D04B0EF3
:106CF200006E000E016E24510026D8B0012A00C099
:106D020030F001C031F03380010E346E338E31D059
:106D1200338E4B0EE16E000EE26E2451E126D8B0A6
:106D2200E22A22C4E6FF25D024D023D00401215137
:106D3200050AC7E02151060AC8E02151090AC7E045
:106D42002151080AC6E02151000ACCE02151010A72
:106D5200CCE02151030AC9E021510A0AC8E02151BD
:106D62000B0AD6E02151070ADFE021510C0ADDE0CF
:046D7200DCD7120058
:086D76001D5201E06ADC12006D
:0E6D7E00160E6F6E9F0E6B6E3B0E696E12004E
:106D8C00506A1EC0E1FF1FC0E2FFE66A040E1E1827
:106D9C00E16E1FC0E2FF000EE21AE66A53BE539E7C
:026DAC001200D3
:0A6DAE006984EF0E68166D82120072
:106DB80070A019D05DC0E9FF5EC0EAFFEECF01F018
:106DC8000150800A0FE11EC0E9FF1FC0EAFFEECFA5
:106DD80001F00150840A06E15DC0E1FF5EC0E2FFF8
:0C6DE8008C0EE66E7090DF0E6816120034
:106DF4001EC0E9FF1FC0EAFFEECF00F000AE05D0D1
:106E04001EC0E1FF1FC0E2FFE66A5B6A506A346A93
:0C6E1400356A336A44DFADDFD8DD1200C0
:106E20006D92699468A403D0FB0E6816FBD712001C
:046E3000A19A120011
:106E340096DE236A246A446A456A6A6A686A9DDF40
:106E44006D8C6E6A716A6D9C486A496A000E495C71
:106E540002E1080E485C17E248C000F049C001F0A6
:106E6400003600900136003600900136000E0024F2
:106E7400E16E040E0120E26EE66AE66AE66AE66AFC
:106E8400484A492AE3D7160E706E68A603D0F70E57
:106E94006816FBD7336A536A546A556A6D98080EAC
:0C6EA4001E6E040E1F6E1C6A5C6A120059
:106EB0005050020A02E16EDE1ED068DF5A50000A0E
:106EC00019E1010E4E24E16E000E4F20E26E080E15
:106ED000E66E020E4E24E16E000E4F20E26E200E92
:106EE000E66E040EE66E4EC0E1FF4FC0E2FF8C0E70
:086EF000E66E01D05A6A12009F
:106EF800040E1E18006E00C01EF05C50080A0AE15D
:106F080022C46EFF6E50000803E2100E5C6E02D0C1
:106F1800040E5C6E5050010A3BE1020E1E24E16E25
:106F2800000E1F20E26E280EE66E040EE66E8BEC55
:106F380032F05B50020A07E11EC0E1FF1FC0E2FF0A
:106F4800840EE66E24D0040E1E18006E00C01EF0DB
:106F58001EC0E9FF1FC0EAFFEECF00F000BC0CD056
:106F6800040E1E18006E00C01EF01EC0E1FF1FC0F8
:106F7800E2FFC80EE66E0BD0040E1E18006E00C0AD
:106F88001EF01EC0E1FF1FC0E2FF880EE66E01D0B2
:046F9800F9DE12000C
:106F9C00000E0001B71902E1000EB61902E1016AF8
:106FAC000AD0B6C0E9FFB7C0EAFFEECF00F0000E82
:0C6FBC0000BE010E016E01C000F01200CA
:106FC8000001B751000A12E0B6C000F0000E016ED1
:106FD8000036009001361E0E0024E96E000E0120D6
:106FE800EA6EEECF04F0EECF05F011D0B6C000F097
:106FF800000E016E003600900136280E0024E96E5E
:10700800000E0120EA6EEECF04F0EECF05F0020E7E
:107018000424E16E000E0520E26EB8C0E6FFB9C098
:10702800E6FF010E0424E16E000E0520E26EBAC0F0
:10703800E6FF04C0E9FF05C0EAFFEECF00F004C098
:10704800E1FF05C0E2FF400E0014E66E04C0E9FF50
:1070580005C0EAFFEECF00F004C0E1FF05C0E2FF83
:10706800880E0010E66EB751000A1BE0B6C000F0AB
:10707800000E016E0036009001361E0E0024026ECE
:10708800000E0120036E02C0E9FF03C0EAFF040EF0
:10709800EE18006E02C0E1FF03C0E2FF00C0E6FF89
:1070A8001AD0B6C000F0000E016E0036009001360E
:1070B800280E0024026E000E0120036E02C0E9FFB4
:1070C80003C0EAFF040EEE18006E02C0E1FF03C021
:1070D800E2FF00C0E6FF04C000F005C001F01200A6
:1070E8005C50000A09E16D6A696A45DE6DB602D036
:1070F8006D86FCD7010E5C6E5C50010A08E16DBA22
:1071080006D0686A696A69806988020E5C6E68A43C
:1071180005D069A403D0FB0E68167EDE6DA202D0EE
:1071280083DED6D068A018D069A016D07FDE040E02
:107138005C6E200E0401026F040E036F080E016FCF
:10714800000E0015006E00C000F48C0E0011006ED9
:1071580000C000F4FE0E681668A805D069A803D020
:1071680022DEEF0E681668AC04D069AC02D0BF0E00
:10717800681668AA03D069AA01D01ADE68A202D0EC
:1071880069B26A6A040E5C5C02E24EDEA1D069A6AE
:107198009ED00001B76B040EB75DD8B098D068A632
:1071A80092D06CCF4AF0F70E6816780E4A14016E2A
:1071B8000150000AD8A486D0FD0E4A14016E026A56
:1071C800FF0E0216000E021802E1000E01186CE113
:1071D8007E0E4A14016E01C003F00332039E03C001
:1071E80000F0000E016E0036009001360036009067
:1071F8000136000E0024026E040E0120036E02C048
:107208005DF003C05EF002C04EF003C04FF0040E04
:107218004E18006E00C04EF002C0E9FF03C0EAFF3E
:10722800EECF00F000C001F03C0E01160132019EC5
:107238000132019E01500D0A35E1020E5D24E96E0E
:10724800000E5E20EA6EEECF01F0EECF02F00250A3
:10725800040A02E1280E011823E10001020E5D2450
:10726800E16E000E5E20E26E200EE66E040EE66E03
:10727800B66B080EB65D14E2200EE16E040EE26EE7
:10728800B651E126D8B0E22A280EE96E040EEA6E5D
:10729800B651E926D8B0EA2AEECFE6FFB62BE9D7F1
:1072A800A5DD01D001DE0DD0FD0E4A14016E026A83
:1072B800FF0E0216000E021802E1040E011801E189
:1072C80017DE00D001D003D00001B72B64D7ACDDA6
:0272D8001200A2
:1072DA00200E5C5C03E36DB201D002D0006A46D096
:1072EA0044C0B6F045C0B7F054DE00523EE1B3C028
:1072FA00B6F0010EB76FB0C0B8F0B1C0B9F0B2C005
:10730A00BAF05DDE00C044F001C045F0406A416A4F
:10731A00426A436A44C0B6F045C0B7F03ADE00524A
:10732A000EE0000E016E0150000A01E1D8DE405065
:10733A0041104210431002E0006A18D0EBD744C053
:10734A00B4F045C0B5F0000E451802E1000E44182D
:10735A000AE0010E0001B425E96E000EB521EA6EBD
:0E736A00EECF00F003D0006A01D0006A1200DE
:107378000001AF6B200E5C5C03E36DB201D002D05C
:10738800006A2DD023C0B6F024C0B7F003DE005247
:1073980025E123C0ADF024C0AEF0000E241802E1B0
:1073A800000E23180AE0010EAD25E96E000EAE218D
:1073B800EA6EEECF00F000C0AFF0ACC0B6F0B76B2D
:1073C800A9C0B8F0AAC0B9F0ABC0BAF0F9DD00C0E6
:1073D80023F001C024F0AFC000F001D0006A120011
:1073E800A9C0B0F0AAC0B1F0ABC0B2F0010E000164
:0673F800B36F6FDF12000D
:1073FE00070E006E7B0E016E000E026E0E0E002446
:10740E00F66E000E0120F76E000E0220F86E0900D7
:10741E00F5CF03F003C004F00F0E0024F66E000E3D
:10742E000120F76E000E0220F86E0900F5CF01F074
:10743E000150035C12E2070E006E7B0E016E000E11
:10744E00026E0F0E0024F66E000E0120F76E000E77
:10745E000220F86E0900F5CF04F0070E006E7B0EC9
:10746E00016E000E026E100E0024F66E000E01204C
:10747E00F76E000E0220F86E0900F5CF01F00150F4
:10748E00045C12E2070E006E7B0E016E000E026EA1
:10749E00100E0024F66E000E0120F76E000E022074
:0E74AE00F86E0900F5CF04F004C000F01200E3
:1074BC000001AC6BAD6BAE6B020EA925F66E000E27
:1074CC00AA21F76E000EAB21F86E0900F5CF05F07E
:1074DC00030EA925F66E000EAA21F76E000EAB2145
:1074EC00F86E0900F5CF00F000C003F0000E046E3A
:1074FC0003C001F0006A05500024066E000E012046
:10750C00076EA9C008F0AAC009F0ABC00AF0010EC2
:10751C000824F66E000E0920F76E000E0A20F86E95
:10752C000900F5CF01F00150020A1BE1060E0824F8
:10753C00F66E000E0920F76E000E0A20F86E090098
:10754C00F5CF01F00150AC5D0CE2060E0824F66E8E
:10755C00000E0920F76E000E0A20F86E0900F5CF18
:10756C00ACF0010E0824F66E000E0920F76E000E2A
:10757C000A20F86E0900F5CF01F00150040A1BE156
:10758C00080E0824F66E000E0920F76E000E0A2075
:10759C00F86E0900F5CF01F00150AC5D0CE2080E5D
:1075AC000824F66E000E0920F76E000E0A20F86E05
:1075BC000900F5CFACF008C0F6FF09C0F7FF0AC010
:1075CC00F8FF0900F5CF00F00050AD25016E000E5C
:1075DC00AE21026E01C0ADF002C0AEF00750025CED
:1075EC0002E10650015C01E30FD008C0F6FF09C0B0
:1075FC00F7FF0AC0F8FF0900F5CF00F0005008268D
:0E760C00000E09220A2283D7ACC000F0120043
:0A761A00D08EA28AA08AF28E120020
:10762400F2CF02F0F29EA9C0F6FFAAC0F7FFABC0EA
:10763400F8FFADC0E9FFAEC0EAFF0A00016A200E00
:10764400015C07E2EECFF5FF00000F000000012A05
:10765400F6D7A68EBF0EA616A684550EA76EAA0E42
:10766400A76EA682A69402BE02D0F29E01D0F28E2C
:02767400120002
:107676002B0E016E400EE16E050EE26E4A0EF66EA0
:107686007A0EF76E000EF86E0900F5CF00F000C016
:10769600E6FF0106F9E1400E0001A96F050EAA6F8B
:0876A600400EAB6F9EDE1200E6
:1076AE001750000A17E1000E000A03E10F0E050144
:1076BE00001901E00FD001C517F002C518F003C57F
:1076CE0019F004C51AF005C51BF006C515F007C55F
:0676DE0016F000D01200BE
:1076E4000F0E0501406FA5C041F5400E0001A96FC2
:0C76F400050EAA6F400EAB6F75DE120091
:1077000025C0A9F026C0AAF0400E0001AB6F010E03
:06771000AC6F32DE120036
:1077160073DE00C0A5F0750E0001A96F7A0EAA6F80
:10772600000EAB6FC8DE00C0A6F0A551005C03E2F8
:0C773600A5C000F002D0A6C000F01200B8
:107742005C50000A0BE16D6A696ABFEC36F064DFD7
:0E7752006DB602D06D86FCD7010E5C6E120083
:10776000070E0C6E7D0E0D6E0D2EFED70C2EFCD767
:02777000120005
:10777200000E046E050E056E036A1550161003E125
:10778200010E006E32D05F0E00019F5D016E000E91
:10779200A059026E000E021802E1400E011803E128
:1077A200010E006E22D00350400A02E1006A1DD091
:1077B200000104C0E9FF05C0EAFF9FC0E1FFA0C0CD
:1077C200E2FFEECFE6FF010E9F25006E000EA02124
:1077D200016E00C09FF001C0A0F0044A052A010E0C
:0C77E200155E000E165A032AC8D71200CC
:1077EE005F0E00019F5DA56F000EA059A66F5F0E84
:1077FE009F6F000EA06F800E006E800EA619005CAB
:10780E0002E1A551000823E218C0A9F019C0AAF0A0
:10781E001AC0ABF01BC0ACF09FC0ADF0A0C0AEF074
:10782E00FADE200E0001A55F000EA65B200E9F253E
:10783E00006E000EA021016E00C09FF001C0A0F0EE
:10784E00200E1826000E19221A221B22D4D712003F
:10785E00410E0C6EEE0E0D6E0D2EFED70C2EFCD7BD
:04786E000000120004
:10787200F2CF00F0F29EA5C0F6FFA6C0F7FFA7C0A8
:10788200F8FFA68EBF0EA616A684A688550EA76E72
:10789200AA0EA76EA682A69400BE02D0F29E01D0C6
:0478A200F28E120050
:0878A6006D6A696A5C6A120058
:1078AE000900F5CFE6FF0006FBE10106F9E1120043
:1078BE00000E006E040E016E0050011000E012006A
:1078CE0023DF00C03FF0010E1D6EA1C025F0A2C047
:1078DE0026F0A3C046F0A4C047F01AEC37F0000E15
:0C78EE00016E0150010A01E125DF1200CB
:0478FA00D5DF1200C4
:1078FE000001A16B5F0E9F6F000EA06F74EC38F04D
:10790E00F8DE0052D8B46AD0CBDE5CD00001A153B1
:10791E0021E028DF00521DE0000E1B5C08E1000E86
:10792E001A5C05E1630E195C02E1000E185C01E2BF
:10793E0057DF17C0A5F0CFDE5F0E00019F6F000E60
:10794E00A06F000E161802E1000E151802E1A16BD1
:10795E00176A03D00001010EA16F40D015C000F0D0
:10796E0016C001F0010E155E000E165A00500110E1
:10797E001CE0000E1B5C08E1000E1A5C05E1630EB4
:10798E00195C02E1000E185C09E218C0A5F019C0DE
:10799E00A6F01AC0A7F01BC0A8F064DF400E185E58
:1079AE00000E195A1A5A1B5AD9D717C0A5F093DED2
:1079BE00176A14D017C0A5F08EDE176A0FD0FF001D
:1079CE00176A0CD017500B0AA1E01750150AC6E023
:1079DE001750010AEFE01750040AF1E08FD712009A
:1079EE00880E0001A16F130EA26F74EC38F081DEC9
:1079FE00005213E055DE0BD017C0A5F06CDE176AEF
:107A0E0027DF010E006E19D02FDE176A06D0175031
:107A1E00030AF2E01750020AF7E09BDEA1C000F065
:107A2E00A2C001F0010E0001A15F000EA25B00508A
:0C7A3E00011002E1006A01D0D8D712004C
:107B240010EE15F0070E006E010E016E190EF66EC2
:0E7B34007B0EF76E000EF86E57EC3CF0120060
:107A4A002B0102080080000003400004200005000A
:107A5A00120600630000074564756172646F56314F
:0B7A6A00000000000000000000000011
:107A75000902290001010080320904000002030007
:107A850000000921010100012221000705810340B1
:097A950000010705010340000196
:107A9E0026035500530042002000480049004400D0
:107AAE00200042006F006F0074006C006F006100D8
:067ABE0064006500720087
:107AC40022034D0069006B0072006F0065006C00BA
:107AD40065006B00740072006F006E0069006B003B
:027AE40061003F
:107AE6000600FF0901A10119012940150026FF0022
:107AF6007508954081021901294075089540910243
:017B0600C0BE
:107B07001201000200000008341201000100010206
:027B170000016B
:027B190000006A
:017B1B000069
:047B1C000000000065
:047B2000040309044D
:020000040030CA
:0E000000240C3F1EFF8381FF0FC00FE00F4056
:00000001FF
